{
  "contractName": "Resume",
  "abi": [
    {
      "inputs": [
        {
          "internalType": "string",
          "name": "_key",
          "type": "string"
        },
        {
          "internalType": "string",
          "name": "_workExp",
          "type": "string"
        },
        {
          "internalType": "string",
          "name": "_eduExp",
          "type": "string"
        },
        {
          "internalType": "string",
          "name": "_contact",
          "type": "string"
        }
      ],
      "name": "store",
      "outputs": [],
      "stateMutability": "nonpayable",
      "type": "function"
    },
    {
      "inputs": [
        {
          "internalType": "string",
          "name": "_key",
          "type": "string"
        }
      ],
      "name": "length",
      "outputs": [
        {
          "internalType": "uint256",
          "name": "",
          "type": "uint256"
        }
      ],
      "stateMutability": "view",
      "type": "function",
      "constant": true
    },
    {
      "inputs": [
        {
          "internalType": "string",
          "name": "_key",
          "type": "string"
        },
        {
          "internalType": "uint256",
          "name": "index",
          "type": "uint256"
        }
      ],
      "name": "retrieve",
      "outputs": [
        {
          "internalType": "uint256",
          "name": "",
          "type": "uint256"
        },
        {
          "internalType": "string",
          "name": "",
          "type": "string"
        },
        {
          "internalType": "string",
          "name": "",
          "type": "string"
        },
        {
          "internalType": "string",
          "name": "",
          "type": "string"
        }
      ],
      "stateMutability": "view",
      "type": "function",
      "constant": true
    }
  ],
  "bytecode": "0x608060405234801561001057600080fd5b50610c11806100206000396000f3fe608060405234801561001057600080fd5b50600436106100415760003560e01c806338278cda14610046578063395af80014610062578063436a66e714610095575b600080fd5b610060600480360381019061005b91906105c6565b6100c5565b005b61007c600480360381019061007791906106d3565b610181565b60405161008c94939291906107bd565b60405180910390f35b6100af60048036038101906100aa9190610817565b610442565b6040516100bc9190610860565b60405180910390f35b6000846040516100d591906108b7565b9081526020016040518091039020604051806080016040528042815260200185815260200184815260200183815250908060018154018082558091505060019003906000526020600020906004020160009091909190915060008201518160000155602082015181600101908161014c9190610ada565b5060408201518160020190816101629190610ada565b5060608201518160030190816101789190610ada565b50505050505050565b6000606080606060008660405161019891906108b7565b908152602001604051809103902085815481106101b8576101b7610bac565b5b9060005260206000209060040201600001546000876040516101da91906108b7565b908152602001604051809103902086815481106101fa576101f9610bac565b5b906000526020600020906004020160010160008860405161021b91906108b7565b9081526020016040518091039020878154811061023b5761023a610bac565b5b906000526020600020906004020160020160008960405161025c91906108b7565b9081526020016040518091039020888154811061027c5761027b610bac565b5b9060005260206000209060040201600301828054610299906108fd565b80601f01602080910402602001604051908101604052809291908181526020018280546102c5906108fd565b80156103125780601f106102e757610100808354040283529160200191610312565b820191906000526020600020905b8154815290600101906020018083116102f557829003601f168201915b50505050509250818054610325906108fd565b80601f0160208091040260200160405190810160405280929190818152602001828054610351906108fd565b801561039e5780601f106103735761010080835404028352916020019161039e565b820191906000526020600020905b81548152906001019060200180831161038157829003601f168201915b505050505091508080546103b1906108fd565b80601f01602080910402602001604051908101604052809291908181526020018280546103dd906108fd565b801561042a5780601f106103ff5761010080835404028352916020019161042a565b820191906000526020600020905b81548152906001019060200180831161040d57829003601f168201915b50505050509050935093509350935092959194509250565b6000808260405161045391906108b7565b9081526020016040518091039020805490509050919050565b6000604051905090565b600080fd5b600080fd5b600080fd5b600080fd5b6000601f19601f8301169050919050565b7f4e487b7100000000000000000000000000000000000000000000000000000000600052604160045260246000fd5b6104d38261048a565b810181811067ffffffffffffffff821117156104f2576104f161049b565b5b80604052505050565b600061050561046c565b905061051182826104ca565b919050565b600067ffffffffffffffff8211156105315761053061049b565b5b61053a8261048a565b9050602081019050919050565b82818337600083830152505050565b600061056961056484610516565b6104fb565b90508281526020810184848401111561058557610584610485565b5b610590848285610547565b509392505050565b600082601f8301126105ad576105ac610480565b5b81356105bd848260208601610556565b91505092915050565b600080600080608085870312156105e0576105df610476565b5b600085013567ffffffffffffffff8111156105fe576105fd61047b565b5b61060a87828801610598565b945050602085013567ffffffffffffffff81111561062b5761062a61047b565b5b61063787828801610598565b935050604085013567ffffffffffffffff8111156106585761065761047b565b5b61066487828801610598565b925050606085013567ffffffffffffffff8111156106855761068461047b565b5b61069187828801610598565b91505092959194509250565b6000819050919050565b6106b08161069d565b81146106bb57600080fd5b50565b6000813590506106cd816106a7565b92915050565b600080604083850312156106ea576106e9610476565b5b600083013567ffffffffffffffff8111156107085761070761047b565b5b61071485828601610598565b9250506020610725858286016106be565b9150509250929050565b6107388161069d565b82525050565b600081519050919050565b600082825260208201905092915050565b60005b8381101561077857808201518184015260208101905061075d565b60008484015250505050565b600061078f8261073e565b6107998185610749565b93506107a981856020860161075a565b6107b28161048a565b840191505092915050565b60006080820190506107d2600083018761072f565b81810360208301526107e48186610784565b905081810360408301526107f88185610784565b9050818103606083015261080c8184610784565b905095945050505050565b60006020828403121561082d5761082c610476565b5b600082013567ffffffffffffffff81111561084b5761084a61047b565b5b61085784828501610598565b91505092915050565b6000602082019050610875600083018461072f565b92915050565b600081905092915050565b60006108918261073e565b61089b818561087b565b93506108ab81856020860161075a565b80840191505092915050565b60006108c38284610886565b915081905092915050565b7f4e487b7100000000000000000000000000000000000000000000000000000000600052602260045260246000fd5b6000600282049050600182168061091557607f821691505b602082108103610928576109276108ce565b5b50919050565b60008190508160005260206000209050919050565b60006020601f8301049050919050565b600082821b905092915050565b6000600883026109907fffffffffffffffffffffffffffffffffffffffffffffffffffffffffffffffff82610953565b61099a8683610953565b95508019841693508086168417925050509392505050565b6000819050919050565b60006109d76109d26109cd8461069d565b6109b2565b61069d565b9050919050565b6000819050919050565b6109f1836109bc565b610a056109fd826109de565b848454610960565b825550505050565b600090565b610a1a610a0d565b610a258184846109e8565b505050565b5b81811015610a4957610a3e600082610a12565b600181019050610a2b565b5050565b601f821115610a8e57610a5f8161092e565b610a6884610943565b81016020851015610a77578190505b610a8b610a8385610943565b830182610a2a565b50505b505050565b600082821c905092915050565b6000610ab160001984600802610a93565b1980831691505092915050565b6000610aca8383610aa0565b9150826002028217905092915050565b610ae38261073e565b67ffffffffffffffff811115610afc57610afb61049b565b5b610b0682546108fd565b610b11828285610a4d565b600060209050601f831160018114610b445760008415610b32578287015190505b610b3c8582610abe565b865550610ba4565b601f198416610b528661092e565b60005b82811015610b7a57848901518255600182019150602085019450602081019050610b55565b86831015610b975784890151610b93601f891682610aa0565b8355505b6001600288020188555050505b505050505050565b7f4e487b7100000000000000000000000000000000000000000000000000000000600052603260045260246000fdfea26469706673582212208d2711a0c21a8b08d876866d0c6f209e451f8922b8659a20d3bd7ac4abddd72664736f6c63430008110033",
  "immutableReferences": {},
  "source": "// SPDX-License-Identifier: MIT\npragma solidity ^0.8.15;\n\ncontract Resume {\n    struct resume {\n        uint256 timestamp;\n        string _workExp;\n        string _eduExp;\n        string _contact;\n    }\n\n    mapping(string => resume[]) resumeMap;\n\n    function store(\n        string memory _key,\n        string memory _workExp,\n        string memory _eduExp,\n        string memory _contact\n    ) public {\n        resumeMap[_key].push(\n            resume(block.timestamp, _workExp, _eduExp, _contact)\n        );\n    }\n\n    function length(string memory _key) public view returns (uint256) {\n        return resumeMap[_key].length;\n    }\n\n    function retrieve(string memory _key, uint256 index)\n        public\n        view\n        returns (\n            uint256,\n            string memory,\n            string memory,\n            string memory\n        )\n    {\n        return (\n            resumeMap[_key][index].timestamp,\n            resumeMap[_key][index]._workExp,\n            resumeMap[_key][index]._eduExp,\n            resumeMap[_key][index]._contact\n        );\n    }\n}\n",
  "sourcePath": "/Users/myohan/Codewithdw/GitHub/resume_chain/eth/truffle/contracts/Resume.sol",
  "compiler": {
    "name": "solc",
    "version": "0.8.17+commit.8df45f5f.Emscripten.clang"
  },
  "schemaVersion": "3.4.10",
  "updatedAt": "2022-11-29T07:58:17.417Z",
  "networkType": "ethereum",
  "devdoc": {
    "kind": "dev",
    "methods": {},
    "version": 1
  },
  "userdoc": {
    "kind": "user",
    "methods": {},
    "version": 1
  }
}